{
  "_format": "hh-sol-artifact-1",
  "contractName": "TodoList",
  "sourceName": "contracts/ToDoList.sol",
  "abi": [
    {
      "inputs": [
        {
          "internalType": "string",
          "name": "_content",
          "type": "string"
        }
      ],
      "name": "createTask",
      "outputs": [],
      "stateMutability": "nonpayable",
      "type": "function"
    },
    {
      "inputs": [
        {
          "internalType": "uint256",
          "name": "_id",
          "type": "uint256"
        }
      ],
      "name": "readTask",
      "outputs": [
        {
          "internalType": "uint256",
          "name": "id",
          "type": "uint256"
        },
        {
          "internalType": "string",
          "name": "content",
          "type": "string"
        },
        {
          "internalType": "bool",
          "name": "completed",
          "type": "bool"
        }
      ],
      "stateMutability": "view",
      "type": "function"
    },
    {
      "inputs": [],
      "name": "taskCount",
      "outputs": [
        {
          "internalType": "uint256",
          "name": "",
          "type": "uint256"
        }
      ],
      "stateMutability": "view",
      "type": "function"
    },
    {
      "inputs": [
        {
          "internalType": "uint256",
          "name": "",
          "type": "uint256"
        }
      ],
      "name": "tasks",
      "outputs": [
        {
          "internalType": "uint256",
          "name": "id",
          "type": "uint256"
        },
        {
          "internalType": "string",
          "name": "content",
          "type": "string"
        },
        {
          "internalType": "bool",
          "name": "completed",
          "type": "bool"
        }
      ],
      "stateMutability": "view",
      "type": "function"
    },
    {
      "inputs": [
        {
          "internalType": "uint256",
          "name": "_id",
          "type": "uint256"
        }
      ],
      "name": "toggleTask",
      "outputs": [],
      "stateMutability": "nonpayable",
      "type": "function"
    }
  ],
  "bytecode": "0x6080604052348015600f57600080fd5b50610b0a8061001f6000396000f3fe608060405234801561001057600080fd5b50600436106100575760003560e01c8063111002aa1461005c578063613137a4146100785780638d97767214610094578063ab755faf146100c6578063b6cb58a5146100f8575b600080fd5b61007660048036038101906100719190610565565b610116565b005b610092600480360381019061008d91906105e4565b6101a8565b005b6100ae60048036038101906100a991906105e4565b6101fb565b6040516100bd939291906106ba565b60405180910390f35b6100e060048036038101906100db91906105e4565b6102ba565b6040516100ef939291906106ba565b60405180910390f35b610100610405565b60405161010d91906106f8565b60405180910390f35b6001600081548092919061012990610742565b9190505550604051806060016040528060015481526020018281526020016000151581525060008060015481526020019081526020016000206000820151816000015560208201518160010190816101819190610996565b5060408201518160020160006101000a81548160ff02191690831515021790555090505050565b60008082815260200190815260200160002060020160009054906101000a900460ff161560008083815260200190815260200160002060020160006101000a81548160ff02191690831515021790555050565b6000602052806000526040600020600091509050806000015490806001018054610224906107b9565b80601f0160208091040260200160405190810160405280929190818152602001828054610250906107b9565b801561029d5780601f106102725761010080835404028352916020019161029d565b820191906000526020600020905b81548152906001019060200180831161028057829003601f168201915b5050505050908060020160009054906101000a900460ff16905083565b60006060600080841180156102d157506001548411155b610310576040517f08c379a000000000000000000000000000000000000000000000000000000000815260040161030790610ab4565b60405180910390fd5b600080600086815260200190815260200160002060405180606001604052908160008201548152602001600182018054610349906107b9565b80601f0160208091040260200160405190810160405280929190818152602001828054610375906107b9565b80156103c25780601f10610397576101008083540402835291602001916103c2565b820191906000526020600020905b8154815290600101906020018083116103a557829003601f168201915b505050505081526020016002820160009054906101000a900460ff1615151515815250509050806000015181602001518260400151935093509350509193909250565b60015481565b6000604051905090565b600080fd5b600080fd5b600080fd5b600080fd5b6000601f19601f8301169050919050565b7f4e487b7100000000000000000000000000000000000000000000000000000000600052604160045260246000fd5b61047282610429565b810181811067ffffffffffffffff821117156104915761049061043a565b5b80604052505050565b60006104a461040b565b90506104b08282610469565b919050565b600067ffffffffffffffff8211156104d0576104cf61043a565b5b6104d982610429565b9050602081019050919050565b82818337600083830152505050565b6000610508610503846104b5565b61049a565b90508281526020810184848401111561052457610523610424565b5b61052f8482856104e6565b509392505050565b600082601f83011261054c5761054b61041f565b5b813561055c8482602086016104f5565b91505092915050565b60006020828403121561057b5761057a610415565b5b600082013567ffffffffffffffff8111156105995761059861041a565b5b6105a584828501610537565b91505092915050565b6000819050919050565b6105c1816105ae565b81146105cc57600080fd5b50565b6000813590506105de816105b8565b92915050565b6000602082840312156105fa576105f9610415565b5b6000610608848285016105cf565b91505092915050565b61061a816105ae565b82525050565b600081519050919050565b600082825260208201905092915050565b60005b8381101561065a57808201518184015260208101905061063f565b60008484015250505050565b600061067182610620565b61067b818561062b565b935061068b81856020860161063c565b61069481610429565b840191505092915050565b60008115159050919050565b6106b48161069f565b82525050565b60006060820190506106cf6000830186610611565b81810360208301526106e18185610666565b90506106f060408301846106ab565b949350505050565b600060208201905061070d6000830184610611565b92915050565b7f4e487b7100000000000000000000000000000000000000000000000000000000600052601160045260246000fd5b600061074d826105ae565b91507fffffffffffffffffffffffffffffffffffffffffffffffffffffffffffffffff820361077f5761077e610713565b5b600182019050919050565b7f4e487b7100000000000000000000000000000000000000000000000000000000600052602260045260246000fd5b600060028204905060018216806107d157607f821691505b6020821081036107e4576107e361078a565b5b50919050565b60008190508160005260206000209050919050565b60006020601f8301049050919050565b600082821b905092915050565b60006008830261084c7fffffffffffffffffffffffffffffffffffffffffffffffffffffffffffffffff8261080f565b610856868361080f565b95508019841693508086168417925050509392505050565b6000819050919050565b600061089361088e610889846105ae565b61086e565b6105ae565b9050919050565b6000819050919050565b6108ad83610878565b6108c16108b98261089a565b84845461081c565b825550505050565b600090565b6108d66108c9565b6108e18184846108a4565b505050565b5b81811015610905576108fa6000826108ce565b6001810190506108e7565b5050565b601f82111561094a5761091b816107ea565b610924846107ff565b81016020851015610933578190505b61094761093f856107ff565b8301826108e6565b50505b505050565b600082821c905092915050565b600061096d6000198460080261094f565b1980831691505092915050565b6000610986838361095c565b9150826002028217905092915050565b61099f82610620565b67ffffffffffffffff8111156109b8576109b761043a565b5b6109c282546107b9565b6109cd828285610909565b600060209050601f831160018114610a0057600084156109ee578287015190505b6109f8858261097a565b865550610a60565b601f198416610a0e866107ea565b60005b82811015610a3657848901518255600182019150602085019450602081019050610a11565b86831015610a535784890151610a4f601f89168261095c565b8355505b6001600288020188555050505b505050505050565b7f5461736b204944206f7574206f662072616e6765000000000000000000000000600082015250565b6000610a9e60148361062b565b9150610aa982610a68565b602082019050919050565b60006020820190508181036000830152610acd81610a91565b905091905056fea2646970667358221220f928fd406795c4757fccf4942c480ae87044460aa90679164aa27f29e024b1d364736f6c634300081c0033",
  "linkReferences": {},
  "deployedLinkReferences": {}
}