{
  "_format": "hh-sol-artifact-1",
  "contractName": "Voting",
  "sourceName": "contracts/Voting.sol",
  "abi": [
    {
      "inputs": [],
      "stateMutability": "nonpayable",
      "type": "constructor"
    },
    {
      "anonymous": false,
      "inputs": [
        {
          "indexed": false,
          "internalType": "uint256",
          "name": "id",
          "type": "uint256"
        },
        {
          "indexed": false,
          "internalType": "string",
          "name": "name",
          "type": "string"
        },
        {
          "indexed": false,
          "internalType": "string",
          "name": "party",
          "type": "string"
        }
      ],
      "name": "CandidateRegistered",
      "type": "event"
    },
    {
      "anonymous": false,
      "inputs": [
        {
          "indexed": false,
          "internalType": "address",
          "name": "voter",
          "type": "address"
        },
        {
          "indexed": false,
          "internalType": "uint256",
          "name": "candidateId",
          "type": "uint256"
        }
      ],
      "name": "Voted",
      "type": "event"
    },
    {
      "anonymous": false,
      "inputs": [
        {
          "indexed": false,
          "internalType": "address",
          "name": "voter",
          "type": "address"
        }
      ],
      "name": "VoterRegistered",
      "type": "event"
    },
    {
      "anonymous": false,
      "inputs": [],
      "name": "VotingEnded",
      "type": "event"
    },
    {
      "anonymous": false,
      "inputs": [],
      "name": "VotingStarted",
      "type": "event"
    },
    {
      "inputs": [],
      "name": "admin",
      "outputs": [
        {
          "internalType": "address",
          "name": "",
          "type": "address"
        }
      ],
      "stateMutability": "view",
      "type": "function"
    },
    {
      "inputs": [
        {
          "internalType": "uint256",
          "name": "",
          "type": "uint256"
        }
      ],
      "name": "candidates",
      "outputs": [
        {
          "internalType": "uint256",
          "name": "id",
          "type": "uint256"
        },
        {
          "internalType": "string",
          "name": "name",
          "type": "string"
        },
        {
          "internalType": "string",
          "name": "party",
          "type": "string"
        },
        {
          "internalType": "uint256",
          "name": "voteCount",
          "type": "uint256"
        }
      ],
      "stateMutability": "view",
      "type": "function"
    },
    {
      "inputs": [],
      "name": "candidatesCount",
      "outputs": [
        {
          "internalType": "uint256",
          "name": "",
          "type": "uint256"
        }
      ],
      "stateMutability": "view",
      "type": "function"
    },
    {
      "inputs": [],
      "name": "endVoting",
      "outputs": [],
      "stateMutability": "nonpayable",
      "type": "function"
    },
    {
      "inputs": [
        {
          "internalType": "uint256",
          "name": "_candidateId",
          "type": "uint256"
        }
      ],
      "name": "getCandidate",
      "outputs": [
        {
          "internalType": "string",
          "name": "",
          "type": "string"
        },
        {
          "internalType": "string",
          "name": "",
          "type": "string"
        },
        {
          "internalType": "uint256",
          "name": "",
          "type": "uint256"
        }
      ],
      "stateMutability": "view",
      "type": "function"
    },
    {
      "inputs": [
        {
          "internalType": "address",
          "name": "_voter",
          "type": "address"
        }
      ],
      "name": "getVoter",
      "outputs": [
        {
          "internalType": "bool",
          "name": "",
          "type": "bool"
        },
        {
          "internalType": "uint256",
          "name": "",
          "type": "uint256"
        },
        {
          "internalType": "bool",
          "name": "",
          "type": "bool"
        }
      ],
      "stateMutability": "view",
      "type": "function"
    },
    {
      "inputs": [],
      "name": "getWinner",
      "outputs": [
        {
          "internalType": "string",
          "name": "",
          "type": "string"
        },
        {
          "internalType": "string",
          "name": "",
          "type": "string"
        },
        {
          "internalType": "uint256",
          "name": "",
          "type": "uint256"
        }
      ],
      "stateMutability": "view",
      "type": "function"
    },
    {
      "inputs": [
        {
          "internalType": "string",
          "name": "_name",
          "type": "string"
        },
        {
          "internalType": "string",
          "name": "_party",
          "type": "string"
        }
      ],
      "name": "registerCandidate",
      "outputs": [],
      "stateMutability": "nonpayable",
      "type": "function"
    },
    {
      "inputs": [
        {
          "internalType": "address",
          "name": "_voter",
          "type": "address"
        }
      ],
      "name": "registerVoter",
      "outputs": [],
      "stateMutability": "nonpayable",
      "type": "function"
    },
    {
      "inputs": [],
      "name": "startVoting",
      "outputs": [],
      "stateMutability": "nonpayable",
      "type": "function"
    },
    {
      "inputs": [
        {
          "internalType": "uint256",
          "name": "_candidateId",
          "type": "uint256"
        }
      ],
      "name": "vote",
      "outputs": [],
      "stateMutability": "nonpayable",
      "type": "function"
    },
    {
      "inputs": [
        {
          "internalType": "address",
          "name": "",
          "type": "address"
        }
      ],
      "name": "voters",
      "outputs": [
        {
          "internalType": "bool",
          "name": "hasVoted",
          "type": "bool"
        },
        {
          "internalType": "uint256",
          "name": "candidateId",
          "type": "uint256"
        },
        {
          "internalType": "bool",
          "name": "isRegistered",
          "type": "bool"
        }
      ],
      "stateMutability": "view",
      "type": "function"
    },
    {
      "inputs": [],
      "name": "votingEnded",
      "outputs": [
        {
          "internalType": "bool",
          "name": "",
          "type": "bool"
        }
      ],
      "stateMutability": "view",
      "type": "function"
    },
    {
      "inputs": [],
      "name": "votingStarted",
      "outputs": [
        {
          "internalType": "bool",
          "name": "",
          "type": "bool"
        }
      ],
      "stateMutability": "view",
      "type": "function"
    }
  ],
  "bytecode": "0x6080604052348015600f57600080fd5b5033600160006101000a81548173ffffffffffffffffffffffffffffffffffffffff021916908373ffffffffffffffffffffffffffffffffffffffff1602179055506000600160146101000a81548160ff0219169083151502179055506000600160156101000a81548160ff021916908315150217905550611ed7806100966000396000f3fe608060405234801561001057600080fd5b50600436106100ea5760003560e01c806383d948b71161008c578063a3ec138d11610066578063a3ec138d1461022c578063c3403ddf1461025e578063d4f50f9814610268578063f851a4401461029a576100ea565b806383d948b7146101d05780638e7ea5b2146101ee5780639d5a05291461020e576100ea565b80632d35a8a2116100c85780632d35a8a2146101315780633477ee2e1461014f57806335b8e8201461018257806338db6dd3146101b4576100ea565b80630121b93f146100ef5780630dbce4dd1461010b5780631ec6b60a14610127575b600080fd5b6101096004803603810190610104919061129e565b6102b8565b005b61012560048036038101906101209190611411565b61059a565b005b61012f61074d565b005b6101396108b9565b6040516101469190611498565b60405180910390f35b6101696004803603810190610164919061129e565b6108bf565b6040516101799493929190611532565b60405180910390f35b61019c6004803603810190610197919061129e565b6109ff565b6040516101ab93929190611585565b60405180910390f35b6101ce60048036038101906101c99190611628565b610b6c565b005b6101d8610d71565b6040516101e59190611670565b60405180910390f35b6101f6610d84565b60405161020593929190611585565b60405180910390f35b610216610fa2565b6040516102239190611670565b60405180910390f35b61024660048036038101906102419190611628565b610fb5565b6040516102559392919061168b565b60405180910390f35b610266610ff9565b005b610282600480360381019061027d9190611628565b611139565b6040516102919392919061168b565b60405180910390f35b6102a261122e565b6040516102af91906116d1565b60405180910390f35b600160149054906101000a900460ff1680156102e15750600160159054906101000a900460ff16155b610320576040517f08c379a000000000000000000000000000000000000000000000000000000000815260040161031790611738565b60405180910390fd5b600360003373ffffffffffffffffffffffffffffffffffffffff1673ffffffffffffffffffffffffffffffffffffffff16815260200190815260200160002060020160009054906101000a900460ff166103af576040517f08c379a00000000000000000000000000000000000000000000000000000000081526004016103a6906117a4565b60405180910390fd5b600360003373ffffffffffffffffffffffffffffffffffffffff1673ffffffffffffffffffffffffffffffffffffffff16815260200190815260200160002060000160009054906101000a900460ff161561043f576040517f08c379a000000000000000000000000000000000000000000000000000000000815260040161043690611810565b60405180910390fd5b60008111801561045157506000548111155b610490576040517f08c379a00000000000000000000000000000000000000000000000000000000081526004016104879061187c565b60405180910390fd5b6001600360003373ffffffffffffffffffffffffffffffffffffffff1673ffffffffffffffffffffffffffffffffffffffff16815260200190815260200160002060000160006101000a81548160ff02191690831515021790555080600360003373ffffffffffffffffffffffffffffffffffffffff1673ffffffffffffffffffffffffffffffffffffffff16815260200190815260200160002060010181905550600260008281526020019081526020016000206003016000815480929190610559906118cb565b91905055507f4d99b957a2bc29a30ebd96a7be8e68fe50a3c701db28a91436490b7d53870ca4338260405161058f929190611913565b60405180910390a150565b600160009054906101000a900473ffffffffffffffffffffffffffffffffffffffff1673ffffffffffffffffffffffffffffffffffffffff163373ffffffffffffffffffffffffffffffffffffffff161461062a576040517f08c379a0000000000000000000000000000000000000000000000000000000008152600401610621906119ae565b60405180910390fd5b600160149054906101000a900460ff161561067a576040517f08c379a000000000000000000000000000000000000000000000000000000000815260040161067190611a1a565b60405180910390fd5b60008081548092919061068c906118cb565b919050555060405180608001604052806000548152602001838152602001828152602001600081525060026000805481526020019081526020016000206000820151816000015560208201518160010190816106e89190611c46565b5060408201518160020190816106fe9190611c46565b50606082015181600301559050507f0ec1a365aeeec255796bf50d7a2a8f24d0d5f5c6ada0167b6c647428d9164582600054838360405161074193929190611d18565b60405180910390a15050565b600160009054906101000a900473ffffffffffffffffffffffffffffffffffffffff1673ffffffffffffffffffffffffffffffffffffffff163373ffffffffffffffffffffffffffffffffffffffff16146107dd576040517f08c379a00000000000000000000000000000000000000000000000000000000081526004016107d4906119ae565b60405180910390fd5b600160149054906101000a900460ff161561082d576040517f08c379a000000000000000000000000000000000000000000000000000000000815260040161082490611a1a565b60405180910390fd5b6000805411610871576040517f08c379a000000000000000000000000000000000000000000000000000000000815260040161086890611da9565b60405180910390fd5b60018060146101000a81548160ff0219169083151502179055507f877e2548498f42b7975a186b94ef1d32c86d420b7b806dd2be2bea293b89590460405160405180910390a1565b60005481565b60026020528060005260406000206000915090508060000154908060010180546108e890611a69565b80601f016020809104026020016040519081016040528092919081815260200182805461091490611a69565b80156109615780601f1061093657610100808354040283529160200191610961565b820191906000526020600020905b81548152906001019060200180831161094457829003601f168201915b50505050509080600201805461097690611a69565b80601f01602080910402602001604051908101604052809291908181526020018280546109a290611a69565b80156109ef5780601f106109c4576101008083540402835291602001916109ef565b820191906000526020600020905b8154815290600101906020018083116109d257829003601f168201915b5050505050908060030154905084565b606080600060026000858152602001908152602001600020600101600260008681526020019081526020016000206002016002600087815260200190815260200160002060030154828054610a5390611a69565b80601f0160208091040260200160405190810160405280929190818152602001828054610a7f90611a69565b8015610acc5780601f10610aa157610100808354040283529160200191610acc565b820191906000526020600020905b815481529060010190602001808311610aaf57829003601f168201915b50505050509250818054610adf90611a69565b80601f0160208091040260200160405190810160405280929190818152602001828054610b0b90611a69565b8015610b585780601f10610b2d57610100808354040283529160200191610b58565b820191906000526020600020905b815481529060010190602001808311610b3b57829003601f168201915b505050505091509250925092509193909250565b600160009054906101000a900473ffffffffffffffffffffffffffffffffffffffff1673ffffffffffffffffffffffffffffffffffffffff163373ffffffffffffffffffffffffffffffffffffffff1614610bfc576040517f08c379a0000000000000000000000000000000000000000000000000000000008152600401610bf3906119ae565b60405180910390fd5b600160149054906101000a900460ff1615610c4c576040517f08c379a0000000000000000000000000000000000000000000000000000000008152600401610c4390611a1a565b60405180910390fd5b600360008273ffffffffffffffffffffffffffffffffffffffff1673ffffffffffffffffffffffffffffffffffffffff16815260200190815260200160002060020160009054906101000a900460ff1615610cdc576040517f08c379a0000000000000000000000000000000000000000000000000000000008152600401610cd390611e15565b60405180910390fd5b6001600360008373ffffffffffffffffffffffffffffffffffffffff1673ffffffffffffffffffffffffffffffffffffffff16815260200190815260200160002060020160006101000a81548160ff0219169083151502179055507fb6be2187d059cc2a55fe29e0e503b566e1e0f8c8780096e185429350acffd3dd81604051610d6691906116d1565b60405180910390a150565b600160149054906101000a900460ff1681565b6060806000600160159054906101000a900460ff16610dd8576040517f08c379a0000000000000000000000000000000000000000000000000000000008152600401610dcf90611e81565b60405180910390fd5b6000806000600190505b6000548111610e39578260026000838152602001908152602001600020600301541115610e2657600260008281526020019081526020016000206003015492508091505b8080610e31906118cb565b915050610de2565b5060026000828152602001908152602001600020600101600260008381526020019081526020016000206002016002600084815260200190815260200160002060030154828054610e8990611a69565b80601f0160208091040260200160405190810160405280929190818152602001828054610eb590611a69565b8015610f025780601f10610ed757610100808354040283529160200191610f02565b820191906000526020600020905b815481529060010190602001808311610ee557829003601f168201915b50505050509250818054610f1590611a69565b80601f0160208091040260200160405190810160405280929190818152602001828054610f4190611a69565b8015610f8e5780601f10610f6357610100808354040283529160200191610f8e565b820191906000526020600020905b815481529060010190602001808311610f7157829003601f168201915b505050505091509450945094505050909192565b600160159054906101000a900460ff1681565b60036020528060005260406000206000915090508060000160009054906101000a900460ff16908060010154908060020160009054906101000a900460ff16905083565b600160009054906101000a900473ffffffffffffffffffffffffffffffffffffffff1673ffffffffffffffffffffffffffffffffffffffff163373ffffffffffffffffffffffffffffffffffffffff1614611089576040517f08c379a0000000000000000000000000000000000000000000000000000000008152600401611080906119ae565b60405180910390fd5b600160149054906101000a900460ff1680156110b25750600160159054906101000a900460ff16155b6110f1576040517f08c379a00000000000000000000000000000000000000000000000000000000081526004016110e890611738565b60405180910390fd5b60018060156101000a81548160ff0219169083151502179055507f7a19ed057db79e3c2fa0b97a54b43bef4fce74b31bb6c01af514b9a18a7f70ab60405160405180910390a1565b6000806000600360008573ffffffffffffffffffffffffffffffffffffffff1673ffffffffffffffffffffffffffffffffffffffff16815260200190815260200160002060000160009054906101000a900460ff16600360008673ffffffffffffffffffffffffffffffffffffffff1673ffffffffffffffffffffffffffffffffffffffff16815260200190815260200160002060010154600360008773ffffffffffffffffffffffffffffffffffffffff1673ffffffffffffffffffffffffffffffffffffffff16815260200190815260200160002060020160009054906101000a900460ff169250925092509193909250565b600160009054906101000a900473ffffffffffffffffffffffffffffffffffffffff1681565b6000604051905090565b600080fd5b600080fd5b6000819050919050565b61127b81611268565b811461128657600080fd5b50565b60008135905061129881611272565b92915050565b6000602082840312156112b4576112b361125e565b5b60006112c284828501611289565b91505092915050565b600080fd5b600080fd5b6000601f19601f8301169050919050565b7f4e487b7100000000000000000000000000000000000000000000000000000000600052604160045260246000fd5b61131e826112d5565b810181811067ffffffffffffffff8211171561133d5761133c6112e6565b5b80604052505050565b6000611350611254565b905061135c8282611315565b919050565b600067ffffffffffffffff82111561137c5761137b6112e6565b5b611385826112d5565b9050602081019050919050565b82818337600083830152505050565b60006113b46113af84611361565b611346565b9050828152602081018484840111156113d0576113cf6112d0565b5b6113db848285611392565b509392505050565b600082601f8301126113f8576113f76112cb565b5b81356114088482602086016113a1565b91505092915050565b600080604083850312156114285761142761125e565b5b600083013567ffffffffffffffff81111561144657611445611263565b5b611452858286016113e3565b925050602083013567ffffffffffffffff81111561147357611472611263565b5b61147f858286016113e3565b9150509250929050565b61149281611268565b82525050565b60006020820190506114ad6000830184611489565b92915050565b600081519050919050565b600082825260208201905092915050565b60005b838110156114ed5780820151818401526020810190506114d2565b60008484015250505050565b6000611504826114b3565b61150e81856114be565b935061151e8185602086016114cf565b611527816112d5565b840191505092915050565b60006080820190506115476000830187611489565b818103602083015261155981866114f9565b9050818103604083015261156d81856114f9565b905061157c6060830184611489565b95945050505050565b6000606082019050818103600083015261159f81866114f9565b905081810360208301526115b381856114f9565b90506115c26040830184611489565b949350505050565b600073ffffffffffffffffffffffffffffffffffffffff82169050919050565b60006115f5826115ca565b9050919050565b611605816115ea565b811461161057600080fd5b50565b600081359050611622816115fc565b92915050565b60006020828403121561163e5761163d61125e565b5b600061164c84828501611613565b91505092915050565b60008115159050919050565b61166a81611655565b82525050565b60006020820190506116856000830184611661565b92915050565b60006060820190506116a06000830186611661565b6116ad6020830185611489565b6116ba6040830184611661565b949350505050565b6116cb816115ea565b82525050565b60006020820190506116e660008301846116c2565b92915050565b7f566f74696e67206973206e6f74206f6e676f696e670000000000000000000000600082015250565b60006117226015836114be565b915061172d826116ec565b602082019050919050565b6000602082019050818103600083015261175181611715565b9050919050565b7f566f746572206e6f742072656769737465726564000000000000000000000000600082015250565b600061178e6014836114be565b915061179982611758565b602082019050919050565b600060208201905081810360008301526117bd81611781565b9050919050565b7f566f7465722068617320616c726561647920766f746564000000000000000000600082015250565b60006117fa6017836114be565b9150611805826117c4565b602082019050919050565b60006020820190508181036000830152611829816117ed565b9050919050565b7f496e76616c69642063616e646964617465206964000000000000000000000000600082015250565b60006118666014836114be565b915061187182611830565b602082019050919050565b6000602082019050818103600083015261189581611859565b9050919050565b7f4e487b7100000000000000000000000000000000000000000000000000000000600052601160045260246000fd5b60006118d682611268565b91507fffffffffffffffffffffffffffffffffffffffffffffffffffffffffffffffff82036119085761190761189c565b5b600182019050919050565b600060408201905061192860008301856116c2565b6119356020830184611489565b9392505050565b7f4f6e6c792061646d696e2063616e2063616c6c20746869732066756e6374696f60008201527f6e00000000000000000000000000000000000000000000000000000000000000602082015250565b60006119986021836114be565b91506119a38261193c565b604082019050919050565b600060208201905081810360008301526119c78161198b565b9050919050565b7f566f74696e672068617320616c72656164792073746172746564000000000000600082015250565b6000611a04601a836114be565b9150611a0f826119ce565b602082019050919050565b60006020820190508181036000830152611a33816119f7565b9050919050565b7f4e487b7100000000000000000000000000000000000000000000000000000000600052602260045260246000fd5b60006002820490506001821680611a8157607f821691505b602082108103611a9457611a93611a3a565b5b50919050565b60008190508160005260206000209050919050565b60006020601f8301049050919050565b600082821b905092915050565b600060088302611afc7fffffffffffffffffffffffffffffffffffffffffffffffffffffffffffffffff82611abf565b611b068683611abf565b95508019841693508086168417925050509392505050565b6000819050919050565b6000611b43611b3e611b3984611268565b611b1e565b611268565b9050919050565b6000819050919050565b611b5d83611b28565b611b71611b6982611b4a565b848454611acc565b825550505050565b600090565b611b86611b79565b611b91818484611b54565b505050565b5b81811015611bb557611baa600082611b7e565b600181019050611b97565b5050565b601f821115611bfa57611bcb81611a9a565b611bd484611aaf565b81016020851015611be3578190505b611bf7611bef85611aaf565b830182611b96565b50505b505050565b600082821c905092915050565b6000611c1d60001984600802611bff565b1980831691505092915050565b6000611c368383611c0c565b9150826002028217905092915050565b611c4f826114b3565b67ffffffffffffffff811115611c6857611c676112e6565b5b611c728254611a69565b611c7d828285611bb9565b600060209050601f831160018114611cb05760008415611c9e578287015190505b611ca88582611c2a565b865550611d10565b601f198416611cbe86611a9a565b60005b82811015611ce657848901518255600182019150602085019450602081019050611cc1565b86831015611d035784890151611cff601f891682611c0c565b8355505b6001600288020188555050505b505050505050565b6000606082019050611d2d6000830186611489565b8181036020830152611d3f81856114f9565b90508181036040830152611d5381846114f9565b9050949350505050565b7f4e6f2063616e6469646174657320726567697374657265640000000000000000600082015250565b6000611d936018836114be565b9150611d9e82611d5d565b602082019050919050565b60006020820190508181036000830152611dc281611d86565b9050919050565b7f566f74657220616c726561647920726567697374657265640000000000000000600082015250565b6000611dff6018836114be565b9150611e0a82611dc9565b602082019050919050565b60006020820190508181036000830152611e2e81611df2565b9050919050565b7f566f74696e6720686173206e6f7420656e646564000000000000000000000000600082015250565b6000611e6b6014836114be565b9150611e7682611e35565b602082019050919050565b60006020820190508181036000830152611e9a81611e5e565b905091905056fea2646970667358221220b364e44c13c933e543b6dc7ec148c6456596650b61f5a8fd66be7c3f51c19f7064736f6c634300081c0033",
  "linkReferences": {},
  "deployedLinkReferences": {}
}